{
  "address": "0xADcb3AB2280EC987b78c35D530F9148d70C62a8f",
  "abi": [
    {
      "inputs": [
        {
          "internalType": "uint256",
          "name": "_lockTime",
          "type": "uint256"
        },
        {
          "internalType": "address",
          "name": "dataFeedAddr",
          "type": "address"
        }
      ],
      "stateMutability": "nonpayable",
      "type": "constructor"
    },
    {
      "inputs": [],
      "name": "dataFeed",
      "outputs": [
        {
          "internalType": "contract AggregatorV3Interface",
          "name": "",
          "type": "address"
        }
      ],
      "stateMutability": "view",
      "type": "function"
    },
    {
      "inputs": [],
      "name": "erc20Addr",
      "outputs": [
        {
          "internalType": "address",
          "name": "",
          "type": "address"
        }
      ],
      "stateMutability": "view",
      "type": "function"
    },
    {
      "inputs": [],
      "name": "fund",
      "outputs": [],
      "stateMutability": "payable",
      "type": "function"
    },
    {
      "inputs": [
        {
          "internalType": "address",
          "name": "",
          "type": "address"
        }
      ],
      "name": "funders2Amount",
      "outputs": [
        {
          "internalType": "uint256",
          "name": "",
          "type": "uint256"
        }
      ],
      "stateMutability": "view",
      "type": "function"
    },
    {
      "inputs": [],
      "name": "getChainlinkDataFeedLatestAnswer",
      "outputs": [
        {
          "internalType": "int256",
          "name": "",
          "type": "int256"
        }
      ],
      "stateMutability": "view",
      "type": "function"
    },
    {
      "inputs": [],
      "name": "getFund",
      "outputs": [],
      "stateMutability": "nonpayable",
      "type": "function"
    },
    {
      "inputs": [],
      "name": "getFundSuccess",
      "outputs": [
        {
          "internalType": "bool",
          "name": "",
          "type": "bool"
        }
      ],
      "stateMutability": "view",
      "type": "function"
    },
    {
      "inputs": [],
      "name": "owner",
      "outputs": [
        {
          "internalType": "address",
          "name": "",
          "type": "address"
        }
      ],
      "stateMutability": "view",
      "type": "function"
    },
    {
      "inputs": [],
      "name": "refund",
      "outputs": [],
      "stateMutability": "nonpayable",
      "type": "function"
    },
    {
      "inputs": [
        {
          "internalType": "address",
          "name": "_erc20Addr",
          "type": "address"
        }
      ],
      "name": "setErc20Addr",
      "outputs": [],
      "stateMutability": "nonpayable",
      "type": "function"
    },
    {
      "inputs": [
        {
          "internalType": "address",
          "name": "funder",
          "type": "address"
        },
        {
          "internalType": "uint256",
          "name": "amountToUpdate",
          "type": "uint256"
        }
      ],
      "name": "setFunderToAmount",
      "outputs": [],
      "stateMutability": "nonpayable",
      "type": "function"
    },
    {
      "inputs": [
        {
          "internalType": "address",
          "name": "newOwner",
          "type": "address"
        }
      ],
      "name": "transferOwnership",
      "outputs": [],
      "stateMutability": "nonpayable",
      "type": "function"
    }
  ],
  "transactionHash": "0xf23914d699ffe9591a3f73a2feeac411a50cfea960f26ee9a0cbddf5c512afb9",
  "args": [
    180,
    "0x694AA1769357215DE4FAC081bf1f309aDC325306"
  ],
  "numDeployments": 1,
  "solcInputHash": "ca467765eb890fd6f5bc9e218621c196",
  "bytecode": "0x60806040526000600660006101000a81548160ff02191690831515021790555034801561002b57600080fd5b506040516116ac3803806116ac833981810160405281019061004d919061017d565b33600360006101000a81548173ffffffffffffffffffffffffffffffffffffffff021916908373ffffffffffffffffffffffffffffffffffffffff16021790555080600160006101000a81548173ffffffffffffffffffffffffffffffffffffffff021916908373ffffffffffffffffffffffffffffffffffffffff160217905550426004819055508160058190555050506101bd565b600080fd5b6000819050919050565b6100fc816100e9565b811461010757600080fd5b50565b600081519050610119816100f3565b92915050565b600073ffffffffffffffffffffffffffffffffffffffff82169050919050565b600061014a8261011f565b9050919050565b61015a8161013f565b811461016557600080fd5b50565b60008151905061017781610151565b92915050565b60008060408385031215610194576101936100e4565b5b60006101a28582860161010a565b92505060206101b385828601610168565b9150509250929050565b6114e0806101cc6000396000f3fe6080604052600436106100a75760003560e01c80639e42ff90116100645780639e42ff9014610196578063b60d4288146101c1578063bea4dfb5146101cb578063d39cf006146101f6578063da4658e01461021f578063f2fde38b1461024a576100a7565b806301fa9ffb146100ac57806313ffff01146100e9578063317e3ce014610112578063590e1ae31461013d5780638da5cb5b146101545780638edd6eb61461017f575b600080fd5b3480156100b857600080fd5b506100d360048036038101906100ce9190610c5d565b610273565b6040516100e09190610ca3565b60405180910390f35b3480156100f557600080fd5b50610110600480360381019061010b9190610c5d565b61028b565b005b34801561011e57600080fd5b5061012761035f565b6040516101349190610ccd565b60405180910390f35b34801561014957600080fd5b50610152610385565b005b34801561016057600080fd5b506101696105de565b6040516101769190610ccd565b60405180910390f35b34801561018b57600080fd5b50610194610604565b005b3480156101a257600080fd5b506101ab61084a565b6040516101b89190610d47565b60405180910390f35b6101c9610870565b005b3480156101d757600080fd5b506101e061096b565b6040516101ed9190610d7b565b60405180910390f35b34801561020257600080fd5b5061021d60048036038101906102189190610dc2565b610a0c565b005b34801561022b57600080fd5b50610234610ae3565b6040516102419190610e1d565b60405180910390f35b34801561025657600080fd5b50610271600480360381019061026c9190610c5d565b610af6565b005b60006020528060005260406000206000915090505481565b600360009054906101000a900473ffffffffffffffffffffffffffffffffffffffff1673ffffffffffffffffffffffffffffffffffffffff163373ffffffffffffffffffffffffffffffffffffffff161461031b576040517f08c379a000000000000000000000000000000000000000000000000000000000815260040161031290610ebb565b60405180910390fd5b80600260006101000a81548173ffffffffffffffffffffffffffffffffffffffff021916908373ffffffffffffffffffffffffffffffffffffffff16021790555050565b600260009054906101000a900473ffffffffffffffffffffffffffffffffffffffff1681565b6005546004546103959190610f0a565b4210156103d7576040517f08c379a00000000000000000000000000000000000000000000000000000000081526004016103ce90610f8a565b60405180910390fd5b6802b5e3af16b18800006103ea47610bca565b1061042a576040517f08c379a000000000000000000000000000000000000000000000000000000000815260040161042190610ff6565b60405180910390fd5b60008060003373ffffffffffffffffffffffffffffffffffffffff1673ffffffffffffffffffffffffffffffffffffffff16815260200190815260200160002054036104ab576040517f08c379a00000000000000000000000000000000000000000000000000000000081526004016104a290611062565b60405180910390fd5b60003373ffffffffffffffffffffffffffffffffffffffff166000803373ffffffffffffffffffffffffffffffffffffffff1673ffffffffffffffffffffffffffffffffffffffff1681526020019081526020016000205460405161050f906110b3565b60006040518083038185875af1925050503d806000811461054c576040519150601f19603f3d011682016040523d82523d6000602084013e610551565b606091505b50508091505080610597576040517f08c379a000000000000000000000000000000000000000000000000000000000815260040161058e90611114565b60405180910390fd5b60008060003373ffffffffffffffffffffffffffffffffffffffff1673ffffffffffffffffffffffffffffffffffffffff1681526020019081526020016000208190555050565b600360009054906101000a900473ffffffffffffffffffffffffffffffffffffffff1681565b6005546004546106149190610f0a565b421015610656576040517f08c379a000000000000000000000000000000000000000000000000000000000815260040161064d90610f8a565b60405180910390fd5b600360009054906101000a900473ffffffffffffffffffffffffffffffffffffffff1673ffffffffffffffffffffffffffffffffffffffff163373ffffffffffffffffffffffffffffffffffffffff16146106e6576040517f08c379a00000000000000000000000000000000000000000000000000000000081526004016106dd90610ebb565b60405180910390fd5b6802b5e3af16b18800006106f947610bca565b101561073a576040517f08c379a000000000000000000000000000000000000000000000000000000000815260040161073190611180565b60405180910390fd5b60003373ffffffffffffffffffffffffffffffffffffffff1647604051610760906110b3565b60006040518083038185875af1925050503d806000811461079d576040519150601f19603f3d011682016040523d82523d6000602084013e6107a2565b606091505b505080915050806107e8576040517f08c379a00000000000000000000000000000000000000000000000000000000081526004016107df90611114565b60405180910390fd5b60008060003373ffffffffffffffffffffffffffffffffffffffff1673ffffffffffffffffffffffffffffffffffffffff168152602001908152602001600020819055506001600660006101000a81548160ff02191690831515021790555050565b600160009054906101000a900473ffffffffffffffffffffffffffffffffffffffff1681565b6005546004546108809190610f0a565b42106108c1576040517f08c379a00000000000000000000000000000000000000000000000000000000081526004016108b8906111ec565b60405180910390fd5b678ac7230489e800006108d334610bca565b1015610914576040517f08c379a000000000000000000000000000000000000000000000000000000000815260040161090b90611258565b60405180910390fd5b346000803373ffffffffffffffffffffffffffffffffffffffff1673ffffffffffffffffffffffffffffffffffffffff16815260200190815260200160002060008282546109629190610f0a565b92505081905550565b600080600160009054906101000a900473ffffffffffffffffffffffffffffffffffffffff1673ffffffffffffffffffffffffffffffffffffffff1663feaf968c6040518163ffffffff1660e01b815260040160a060405180830381865afa1580156109db573d6000803e3d6000fd5b505050506040513d601f19601f820116820180604052508101906109ff91906112fb565b5050509150508091505090565b600260009054906101000a900473ffffffffffffffffffffffffffffffffffffffff1673ffffffffffffffffffffffffffffffffffffffff163373ffffffffffffffffffffffffffffffffffffffff1614610a9c576040517f08c379a0000000000000000000000000000000000000000000000000000000008152600401610a93906113e8565b60405180910390fd5b806000808473ffffffffffffffffffffffffffffffffffffffff1673ffffffffffffffffffffffffffffffffffffffff168152602001908152602001600020819055505050565b600660009054906101000a900460ff1681565b600360009054906101000a900473ffffffffffffffffffffffffffffffffffffffff1673ffffffffffffffffffffffffffffffffffffffff163373ffffffffffffffffffffffffffffffffffffffff1614610b86576040517f08c379a0000000000000000000000000000000000000000000000000000000008152600401610b7d90610ebb565b60405180910390fd5b80600360006101000a81548173ffffffffffffffffffffffffffffffffffffffff021916908373ffffffffffffffffffffffffffffffffffffffff16021790555050565b600080610bd561096b565b90506305f5e1008184610be89190611408565b610bf29190611479565b915050919050565b600080fd5b600073ffffffffffffffffffffffffffffffffffffffff82169050919050565b6000610c2a82610bff565b9050919050565b610c3a81610c1f565b8114610c4557600080fd5b50565b600081359050610c5781610c31565b92915050565b600060208284031215610c7357610c72610bfa565b5b6000610c8184828501610c48565b91505092915050565b6000819050919050565b610c9d81610c8a565b82525050565b6000602082019050610cb86000830184610c94565b92915050565b610cc781610c1f565b82525050565b6000602082019050610ce26000830184610cbe565b92915050565b6000819050919050565b6000610d0d610d08610d0384610bff565b610ce8565b610bff565b9050919050565b6000610d1f82610cf2565b9050919050565b6000610d3182610d14565b9050919050565b610d4181610d26565b82525050565b6000602082019050610d5c6000830184610d38565b92915050565b6000819050919050565b610d7581610d62565b82525050565b6000602082019050610d906000830184610d6c565b92915050565b610d9f81610c8a565b8114610daa57600080fd5b50565b600081359050610dbc81610d96565b92915050565b60008060408385031215610dd957610dd8610bfa565b5b6000610de785828601610c48565b9250506020610df885828601610dad565b9150509250929050565b60008115159050919050565b610e1781610e02565b82525050565b6000602082019050610e326000830184610e0e565b92915050565b600082825260208201905092915050565b7f746869732066756e6374696f6e2063616e206f6e6c792062652063616c6c656460008201527f206279206f776e65720000000000000000000000000000000000000000000000602082015250565b6000610ea5602983610e38565b9150610eb082610e49565b604082019050919050565b60006020820190508181036000830152610ed481610e98565b9050919050565b7f4e487b7100000000000000000000000000000000000000000000000000000000600052601160045260246000fd5b6000610f1582610c8a565b9150610f2083610c8a565b9250828201905080821115610f3857610f37610edb565b5b92915050565b7f46756e64696e6720706572696f6420686173206e6f7420656e64656420796574600082015250565b6000610f74602083610e38565b9150610f7f82610f3e565b602082019050919050565b60006020820190508181036000830152610fa381610f67565b9050919050565b7f5461726765742069732072656163686564000000000000000000000000000000600082015250565b6000610fe0601183610e38565b9150610feb82610faa565b602082019050919050565b6000602082019050818103600083015261100f81610fd3565b9050919050565b7f7468657265206973206e6f2066756e6420666f7220796f750000000000000000600082015250565b600061104c601883610e38565b915061105782611016565b602082019050919050565b6000602082019050818103600083015261107b8161103f565b9050919050565b600081905092915050565b50565b600061109d600083611082565b91506110a88261108d565b600082019050919050565b60006110be82611090565b9150819050919050565b7f7472616e73666572207478206661696c65640000000000000000000000000000600082015250565b60006110fe601283610e38565b9150611109826110c8565b602082019050919050565b6000602082019050818103600083015261112d816110f1565b9050919050565b7f546172676574206973206e6f7420726561636865640000000000000000000000600082015250565b600061116a601583610e38565b915061117582611134565b602082019050919050565b600060208201905081810360008301526111998161115d565b9050919050565b7f77696e646f7720697320636c6f73650000000000000000000000000000000000600082015250565b60006111d6600f83610e38565b91506111e1826111a0565b602082019050919050565b60006020820190508181036000830152611205816111c9565b9050919050565b7f53656e64206d6f72652045544800000000000000000000000000000000000000600082015250565b6000611242600d83610e38565b915061124d8261120c565b602082019050919050565b6000602082019050818103600083015261127181611235565b9050919050565b600069ffffffffffffffffffff82169050919050565b61129781611278565b81146112a257600080fd5b50565b6000815190506112b48161128e565b92915050565b6112c381610d62565b81146112ce57600080fd5b50565b6000815190506112e0816112ba565b92915050565b6000815190506112f581610d96565b92915050565b600080600080600060a0868803121561131757611316610bfa565b5b6000611325888289016112a5565b9550506020611336888289016112d1565b9450506040611347888289016112e6565b9350506060611358888289016112e6565b9250506080611369888289016112a5565b9150509295509295909350565b7f596f7520646f206e6f742068617665207065726d697373696f6e20746f20636160008201527f6c6c20746869732066756e6374696f6e00000000000000000000000000000000602082015250565b60006113d2603083610e38565b91506113dd82611376565b604082019050919050565b60006020820190508181036000830152611401816113c5565b9050919050565b600061141382610c8a565b915061141e83610c8a565b925082820261142c81610c8a565b9150828204841483151761144357611442610edb565b5b5092915050565b7f4e487b7100000000000000000000000000000000000000000000000000000000600052601260045260246000fd5b600061148482610c8a565b915061148f83610c8a565b92508261149f5761149e61144a565b5b82820490509291505056fea2646970667358221220c7d197c5654394a7adb8c121a9fd6b6e235b5c2a9d7b6789ebb6f4ba0e6cbcfe64736f6c634300081c0033",
  "devdoc": {
    "kind": "dev",
    "methods": {},
    "version": 1
  },
  "userdoc": {
    "kind": "user",
    "methods": {},
    "version": 1
  },
  "storageLayout": {
    "storage": [
      {
        "astId": 53,
        "contract": "contracts/FundMe.sol:FundMe",
        "label": "funders2Amount",
        "offset": 0,
        "slot": "0",
        "type": "t_mapping(t_address,t_uint256)"
      },
      {
        "astId": 63,
        "contract": "contracts/FundMe.sol:FundMe",
        "label": "dataFeed",
        "offset": 0,
        "slot": "1",
        "type": "t_contract(AggregatorV3Interface)45"
      },
      {
        "astId": 65,
        "contract": "contracts/FundMe.sol:FundMe",
        "label": "erc20Addr",
        "offset": 0,
        "slot": "2",
        "type": "t_address"
      },
      {
        "astId": 74,
        "contract": "contracts/FundMe.sol:FundMe",
        "label": "owner",
        "offset": 0,
        "slot": "3",
        "type": "t_address"
      },
      {
        "astId": 76,
        "contract": "contracts/FundMe.sol:FundMe",
        "label": "deploymentTimestamp",
        "offset": 0,
        "slot": "4",
        "type": "t_uint256"
      },
      {
        "astId": 78,
        "contract": "contracts/FundMe.sol:FundMe",
        "label": "lockTime",
        "offset": 0,
        "slot": "5",
        "type": "t_uint256"
      },
      {
        "astId": 81,
        "contract": "contracts/FundMe.sol:FundMe",
        "label": "getFundSuccess",
        "offset": 0,
        "slot": "6",
        "type": "t_bool"
      }
    ],
    "types": {
      "t_address": {
        "encoding": "inplace",
        "label": "address",
        "numberOfBytes": "20"
      },
      "t_bool": {
        "encoding": "inplace",
        "label": "bool",
        "numberOfBytes": "1"
      },
      "t_contract(AggregatorV3Interface)45": {
        "encoding": "inplace",
        "label": "contract AggregatorV3Interface",
        "numberOfBytes": "20"
      },
      "t_mapping(t_address,t_uint256)": {
        "encoding": "mapping",
        "key": "t_address",
        "label": "mapping(address => uint256)",
        "numberOfBytes": "32",
        "value": "t_uint256"
      },
      "t_uint256": {
        "encoding": "inplace",
        "label": "uint256",
        "numberOfBytes": "32"
      }
    }
  }
}